:020000040000FA
:10000000C7EF29F0E5EF35F06FEF24F0D9CFE5FF2A
:10001000E1CFD9FF00C0E5FF01C0E5FF02C0E5FF69
:1000200003C0E5FF04C0E5FF020EDBCF00F00101D5
:10003000B56B2C0E0101B36F0101BA6B250E0101E6
:10004000B96F0001FF6B0101BE6B9DEC35F0350E01
:10005000005CD8B017EF11F0FA6AFB6A0034FA3688
:10006000E834FA36FC0B760FE56E000EFA22000E2D
:10007000FB22E450F96EA5EF00F030EF02F086EFBE
:1000800002F0DCEF02F032EF03F088EF03F0DEEF76
:1000900003F0DEEF03F034EF04F018EF05F0FCEFAF
:1000A00005F0E0EF06F0C4EF07F068EF09F0AEEFFF
:1000B00009F0F4EF09F03AEF0AF03AEF0AF021EF15
:1000C0000BF021EF0BF021EF0BF021EF0BF0A6EF7F
:1000D0000BF0A6EF0BF0A6EF0BF0A6EF0BF0A6EFE0
:1000E0000BF0A6EF0BF0A6EF0BF0A6EF0BF0ECEF8A
:1000F0000BF0ECEF0BF0ECEF0BF0ECEF0BF0ECEFA8
:100100000BF0ECEF0BF0ECEF0BF0ECEF0BF017EF6C
:1001100011F030EF0CF056EF0CF07AEF0CF09EEF90
:100120000CF0C2EF0CF0E6EF0CF00CEF0DF042EF2C
:100130000DF068EF0DF00AEF0FF08BEF0FF0BEEF50
:100140000FF0E3EF10F017EF11F00001725105E02E
:1001500000017251010A01E013D1000E036E380E46
:10016000026E3E0E016E0350E56E0250E56E0150C8
:10017000E56EA4EC26F0030EE126000EE56E0A0EF5
:10018000E56E00018551E56E00018451E56E6EEC6F
:1001900027F0016EF3CF02F0040EE126300E0126A7
:1001A00001500101B46F000EE56E0A0EE56E00010C
:1001B0008551E56E00018451E56ED1EC28F0016EA9
:1001C000F3CF02F0040EE126000EE56E0A0EE56E96
:1001D0000250E56E0150E56E6EEC27F0016EF3CF34
:1001E00002F0040EE126300E012601500101B26F2B
:1001F000000EE56E640EE56E00018551E56E0001AE
:100200008451E56ED1EC28F0016EF3CF02F0040EBC
:10021000E126000EE56E0A0EE56E0250E56E015015
:10022000E56E6EEC27F0016EF3CF02F0040EE126CE
:10023000300E012601500101B16F010E026EB10EA8
:10024000016E800E036E0350E56E0250E56E0150A4
:10025000E56EA4EC26F0030EE126B5EC35F0000EB9
:10026000036E380E026E420E016E0350E56E0250B0
:10027000E56E0150E56EA4EC26F0030EE126000EBB
:10028000E56E0A0EE56E00018751E56E00018651AC
:10029000E56E6EEC27F0016EF3CF02F0040EE1265E
:1002A000300E012601500101B86F000EE56E0A0EF6
:1002B000E56E00018751E56E00018651E56ED1ECD7
:1002C00028F0016EF3CF02F0040EE126000EE56E79
:1002D0000A0EE56E0250E56E0150E56E6EEC27F0F9
:1002E000016EF3CF02F0040EE126300E012601501C
:1002F0000101B76F000EE56E640EE56E00018751D7
:10030000E56E00018651E56ED1EC28F0016EF3CF69
:1003100002F0040EE126000EE56E0A0EE56E0250B4
:10032000E56E0150E56E6EEC27F0016EF3CF02F042
:10033000040EE126300E012601500101B66F010EB8
:10034000026EB60E016E800E036E0350E56E025013
:10035000E56E0150E56EA4EC26F0030EE126000EDA
:10036000036E380E026E480E016E0350E56E0250A9
:10037000E56E0150E56EA4EC26F0030EE12614D0E4
:1003800000017251020A10E1000E036E380E026E77
:100390004A0E016E0350E56E0250E56E0150E56EA7
:1003A000A4EC26F0030EE126000E036E380E026E5A
:1003B0005C0E016E0350E56E0250E56E0150E56E75
:1003C000A4EC26F0030EE126000E036E380E026E3A
:1003D0005E0E016E0350E56E0250E56E0150E56E53
:1003E000A4EC26F0030EE1260001715127E0000184
:1003F000735112E0000E036E380E026E660E016E2F
:100400000350E56E0250E56E0150E56EA4EC26F057
:10041000030EE12617EF11F0000E036E380E026E88
:10042000720E016E0350E56E0250E56E0150E56EEE
:10043000A4EC26F0030EE12617EF11F0000E036E78
:10044000380E026E7E0E016E0350E56E0250E56EB0
:100450000150E56EA4EC26F0030EE12617EF11F033
:10046000000E036E380E026E8A0E016E0350E56EAA
:100470000250E56E0150E56EA4EC26F0030EE12675
:10048000000E036E380E026E5C0E016E0350E56EB8
:100490000250E56E0150E56EA4EC26F0030EE12655
:1004A000000E036E380E026E9C0E016E0350E56E58
:1004B0000250E56E0150E56EA4EC26F0030EE12635
:1004C000C1EC35F0000E036E380E026EA00E016E08
:1004D0000350E56E0250E56E0150E56EA4EC26F087
:1004E000030EE126D9EC35F0000E036E380E026ED5
:1004F000A80E016E0350E56E0250E56E0150E56EE8
:10050000A4EC26F0030EE12617EF11F0000E036EA7
:10051000380E026EAE0E016E0350E56E0250E56EAF
:100520000150E56EA4EC26F0030EE126000E036EEA
:10053000380E026E5C0E016E0350E56E0250E56EE1
:100540000150E56EA4EC26F0030EE126000E036ECA
:10055000380E026E9C0E016E0350E56E0250E56E81
:100560000150E56EA4EC26F0030EE126C1EC35F057
:10057000000E036E380E026EA00E016E0350E56E83
:100580000250E56E0150E56EA4EC26F0030EE12664
:10059000CDEC35F0000E036E380E026EA80E016E23
:1005A0000350E56E0250E56E0150E56EA4EC26F0B6
:1005B000030EE12617EF11F0000E036E380E026EE7
:1005C000BE0E016E0350E56E0250E56E0150E56E01
:1005D000A4EC26F0030EE126000E036E380E026E28
:1005E0005C0E016E0350E56E0250E56E0150E56E43
:1005F000A4EC26F0030EE126000E036E380E026E08
:100600009C0E016E0350E56E0250E56E0150E56EE2
:10061000A4EC26F0030EE126C1EC35F0000E036ECB
:10062000380E026EA00E016E0350E56E0250E56EAC
:100630000150E56EA4EC26F0030EE126CDEC35F07A
:10064000000E036E380E026EA80E016E0350E56EAA
:100650000250E56E0150E56EA4EC26F0030EE12693
:1006600017EF11F0000E036E380E026ED00E016E01
:100670000350E56E0250E56E0150E56EA4EC26F0E5
:10068000030EE126000E036E380E026E5C0E016E44
:100690000350E56E0250E56E0150E56EA4EC26F0C5
:1006A000030EE126000E036E380E026E9C0E016EE4
:1006B0000350E56E0250E56E0150E56EA4EC26F0A5
:1006C000030EE126C1EC35F0000E036E380E026E0B
:1006D000A00E016E0350E56E0250E56E0150E56E0E
:1006E000A4EC26F0030EE126D9EC35F0000E036EE3
:1006F000380E026EE20E016E0350E56E0250E56E9A
:100700000150E56EA4EC26F0030EE12617EF11F080
:10071000000E036E380E026EE80E016E0350E56E99
:100720000250E56E0150E56EA4EC26F0030EE126C2
:10073000000E036E380E026E5C0E016E0350E56E05
:100740000250E56E0150E56EA4EC26F0030EE126A2
:10075000000E036E380E026E9C0E016E0350E56EA5
:100760000250E56E0150E56EA4EC26F0030EE12682
:10077000C1EC35F0000E036E380E026EA00E016E55
:100780000350E56E0250E56E0150E56EA4EC26F0D4
:10079000030EE126CDEC35F0000E036E380E026E2E
:1007A000E20E016E0350E56E0250E56E0150E56EFB
:1007B000A4EC26F0030EE12617EF11F0000E036EF5
:1007C000380E026EFA0E016E0350E56E0250E56EB1
:1007D0000150E56EA4EC26F0030EE126000E036E38
:1007E000380E026E5C0E016E0350E56E0250E56E2F
:1007F0000150E56EA4EC26F0030EE126000E036E18
:10080000380E026E9C0E016E0350E56E0250E56ECE
:100810000150E56EA4EC26F0030EE126C1EC35F0A4
:10082000000E036E380E026EA00E016E0350E56ED0
:100830000250E56E0150E56EA4EC26F0030EE126B1
:10084000CDEC35F0000E036E380E026EA80E016E70
:100850000350E56E0250E56E0150E56EA4EC26F003
:10086000030EE12617EF11F0000E036E390E026E33
:100870000C0E016E0350E56E0250E56E0150E56E00
:10088000A4EC26F0030EE126000EE56E0A0EE56EDE
:1008900000017751E56E00017651E56E6EEC27F0B0
:1008A000016EF3CF02F0040EE126300E0126015056
:1008B0000101B46F000EE56E0A0EE56E000177517E
:1008C000E56E00017651E56ED1EC28F0016EF3CFB4
:1008D00002F0040EE126000EE56E0A0EE56E0250EF
:1008E000E56E0150E56E6EEC27F0016EF3CF02F07D
:1008F000040EE126300E012601500101B26F000EF8
:10090000E56E640EE56E00017751E56E00017651EB
:10091000E56ED1EC28F0016EF3CF02F0040EE12673
:10092000000EE56E0A0EE56E0250E56E0150E56EB2
:100930006EEC27F0016EF3CF02F0040EE126300ECC
:10094000012601500101B16F010E026EB10E016E60
:10095000800E036E0350E56E0250E56E0150E56EA9
:10096000A4EC26F0030EE126000E036E390E026E93
:10097000160E016E0350E56E0250E56E0150E56EF5
:10098000A4EC26F0030EE126000E036E380E026E74
:100990005C0E016E0350E56E0250E56E0150E56E8F
:1009A000A4EC26F0030EE126000E036E390E026E53
:1009B000220E016E0350E56E0250E56E0150E56EA9
:1009C000A4EC26F0030EE126C1EC35F0000E036E18
:1009D000390E026E2E0E016E0350E56E0250E56E6A
:1009E0000150E56EA4EC26F0030EE126000E036E26
:1009F000390E026E320E016E0350E56E0250E56E46
:100A00000150E56EA4EC26F0030EE126000E036E05
:100A1000390E026E360E016E0350E56E0250E56E21
:100A20000150E56EA4EC26F0030EE12617EF11F05D
:100A3000000E036E390E026E3A0E016E0350E56E23
:100A40000250E56E0150E56EA4EC26F0030EE1269F
:100A5000000EE56E0A0EE56E00017551E56E0001AF
:100A60007451E56E6EEC27F0016EF3CF02F0040EC8
:100A7000E126300E012601500101B46F000EE56E33
:100A80000A0EE56E00017551E56E00017451E56EC8
:100A9000D1EC28F0016EF3CF02F0040EE126000E37
:100AA000E56E0A0EE56E0250E56E0150E56E6EECE5
:100AB00027F0016EF3CF02F0040EE126300E01267E
:100AC00001500101B26F000EE56E640EE56E00018B
:100AD0007551E56E00017451E56ED1EC28F0016EA0
:100AE000F3CF02F0040EE126000EE56E0A0EE56E6D
:100AF0000250E56E0150E56E6EEC27F0016EF3CF0B
:100B000002F0040EE126300E012601500101B16F02
:100B1000010E026EB10E016E800E036E0350E56E83
:100B20000250E56E0150E56EA4EC26F0030EE126BE
:100B3000000E036E380E026EA80E016E0350E56EB5
:100B40000250E56E0150E56EA4EC26F0030EE1269E
:100B5000000E036E380E026E5C0E016E0350E56EE1
:100B60000250E56E0150E56EA4EC26F0030EE1267E
:100B7000000E036E390E026E220E016E0350E56EFA
:100B80000250E56E0150E56EA4EC26F0030EE1265E
:100B9000C1EC35F0000E036E390E026E2E0E016EA2
:100BA0000350E56E0250E56E0150E56EA4EC26F0B0
:100BB000030EE126000E036E390E026E320E016E38
:100BC0000350E56E0250E56E0150E56EA4EC26F090
:100BD000030EE126000E036E390E026E360E016E14
:100BE0000350E56E0250E56E0150E56EA4EC26F070
:100BF000030EE12617EF11F0000E036E390E026EA0
:100C0000440E016E0350E56E0250E56E0150E56E34
:100C1000A4EC26F0030EE126000EE56E0A0EE56E4A
:100C200000017B51E56E00017A51E56E6EEC27F014
:100C3000016EF3CF02F0040EE126300E01260150C2
:100C40000101B86F000EE56E0A0EE56E00017B51E2
:100C5000E56E00017A51E56ED1EC28F0016EF3CF1C
:100C600002F0040EE126000EE56E0A0EE56E02505B
:100C7000E56E0150E56E6EEC27F0016EF3CF02F0E9
:100C8000040EE126300E012601500101B76F000E5F
:100C9000E56E640EE56E00017B51E56E00017A5150
:100CA000E56ED1EC28F0016EF3CF02F0040EE126E0
:100CB000000EE56E0A0EE56E0250E56E0150E56E1F
:100CC0006EEC27F0016EF3CF02F0040EE126300E39
:100CD000012601500101B66F010E026EB60E016EC3
:100CE000800E036E0350E56E0250E56E0150E56E16
:100CF000A4EC26F0030EE126000E036E380E026E01
:100D0000E20E016E0350E56E0250E56E0150E56E95
:100D1000A4EC26F0030EE126000E036E380E026EE0
:100D20005C0E016E0350E56E0250E56E0150E56EFB
:100D3000A4EC26F0030EE126000E036E390E026EBF
:100D4000220E016E0350E56E0250E56E0150E56E15
:100D5000A4EC26F0030EE126C1EC35F0000E036E84
:100D6000390E026E2E0E016E0350E56E0250E56ED6
:100D70000150E56EA4EC26F0030EE126000E036E92
:100D8000390E026E320E016E0350E56E0250E56EB2
:100D90000150E56EA4EC26F0030EE126000E036E72
:100DA000390E026E360E016E0350E56E0250E56E8E
:100DB0000150E56EA4EC26F0030EE12617EF11F0CA
:100DC000000E036E390E026E4E0E016E0350E56E7C
:100DD0000250E56E0150E56EA4EC26F0030EE1260C
:100DE000000EE56E0A0EE56E00017951E56E000118
:100DF0007851E56E6EEC27F0016EF3CF02F0040E31
:100E0000E126300E012601500101B86F000EE56E9B
:100E10000A0EE56E00017951E56E00017851E56E2C
:100E2000D1EC28F0016EF3CF02F0040EE126000EA3
:100E3000E56E0A0EE56E0250E56E0150E56E6EEC51
:100E400027F0016EF3CF02F0040EE126300E0126EA
:100E500001500101B76F000EE56E640EE56E0001F2
:100E60007951E56E00017851E56ED1EC28F0016E04
:100E7000F3CF02F0040EE126000EE56E0A0EE56ED9
:100E80000250E56E0150E56E6EEC27F0016EF3CF77
:100E900002F0040EE126300E012601500101B66F6A
:100EA000010E026EB60E016E800E036E0350E56EEB
:100EB0000250E56E0150E56EA4EC26F0030EE1262B
:100EC000000E036E380E026EA80E016E0350E56E22
:100ED0000250E56E0150E56EA4EC26F0030EE1260B
:100EE000000E036E380E026E5C0E016E0350E56E4E
:100EF0000250E56E0150E56EA4EC26F0030EE126EB
:100F0000000E036E390E026E220E016E0350E56E66
:100F10000250E56E0150E56EA4EC26F0030EE126CA
:100F2000C1EC35F0000E036E390E026E2E0E016E0E
:100F30000350E56E0250E56E0150E56EA4EC26F01C
:100F4000030EE126000E036E390E026E320E016EA4
:100F50000350E56E0250E56E0150E56EA4EC26F0FC
:100F6000030EE126000E036E390E026E360E016E80
:100F70000350E56E0250E56E0150E56EA4EC26F0DC
:100F8000030EE12617EF11F0000E036E390E026E0C
:100F90005A0E016E0350E56E0250E56E0150E56E8B
:100FA000A4EC26F0030EE126000EE56E000EE56EC1
:100FB000000EE56E0A0EE56E00018351E56E00013C
:100FC0008251E56E00018151E56E00018051E56EB0
:100FD000D2EC23F0016EF3CF02F0F4CF03F0E9CFAF
:100FE00004F0080EE126300E012601500001FE6FCC
:100FF000000EE56E000EE56E000EE56E0A0EE56E63
:1010000000018351E56E00018251E56E00018151BE
:10101000E56E00018051E56E97EC25F0016EF3CF8F
:1010200002F0F4CF03F0E9CF04F0080EE126000E41
:10103000E56E000EE56E000EE56E0A0EE56E0450DC
:10104000E56E0350E56E0250E56E0150E56ED2ECA0
:1010500023F0016EF3CF02F0F4CF03F0E9CF04F0F8
:10106000080EE126300E012601500001FD6F000E32
:10107000E56E000EE56E000EE56E640EE56E000195
:101080008351E56E00018251E56E00018151E56EEC
:1010900000018051E56E97EC25F0016EF3CF02F070
:1010A000F4CF03F0E9CF04F0080EE126000EE56E60
:1010B000000EE56E000EE56E0A0EE56E0450E56E5C
:1010C0000350E56E0250E56E0150E56ED2EC23F060
:1010D000016EF3CF02F0F4CF03F0E9CF04F0080E75
:1010E000E126300E012601500001FC6F000EE56E76
:1010F000000EE56E030EE56EE80EE56E000183510D
:10110000E56E00018251E56E00018151E56E00013E
:101110008051E56E97EC25F0016EF3CF02F0F4CF2D
:1011200003F0E9CF04F0080EE126000EE56E000E94
:10113000E56E000EE56E0A0EE56E0450E56E035096
:10114000E56E0250E56E0150E56ED2EC23F0016EC3
:10115000F3CF02F0F4CF03F0E9CF04F0080EE1265C
:10116000300E012601500001FB6F000EE56E000EEF
:10117000E56E270EE56E100EE56E00018351E56EFB
:1011800000018251E56E00018151E56E0001805140
:10119000E56E97EC25F0016EF3CF02F0F4CF03F08B
:1011A000E9CF04F0080EE126000EE56E000EE56EB4
:1011B000000EE56E0A0EE56E0450E56E0350E56E16
:1011C0000250E56E0150E56ED2EC23F0016EF3CFD4
:1011D00002F0F4CF03F0E9CF04F0080EE126300E60
:1011E000012601500001FA6F000E026EFA0E016E28
:1011F000800E036E0350E56E0250E56E0150E56E01
:10120000A4EC26F0030EE126000E036E390E026EEA
:10121000620E016E0350E56E0250E56E0150E56E00
:10122000A4EC26F0030EE126000E036E380E026ECB
:101230005C0E016E0350E56E0250E56E0150E56EE6
:10124000A4EC26F0030EE126000E036E390E026EAA
:10125000220E016E0350E56E0250E56E0150E56E00
:10126000A4EC26F0030EE126C1EC35F0000E036E6F
:10127000390E026E2E0E016E0350E56E0250E56EC1
:101280000150E56EA4EC26F0030EE126000E036E7D
:10129000390E026E320E016E0350E56E0250E56E9D
:1012A0000150E56EA4EC26F0030EE126000E036E5D
:1012B000390E026E360E016E0350E56E0250E56E79
:1012C0000150E56EA4EC26F0030EE12617EF11F0B5
:1012D000000E036E390E026E6A0E016E0350E56E4B
:1012E0000250E56E0150E56EA4EC26F0030EE126F7
:1012F000000E036E380E026E9C0E016E0350E56EFA
:101300000250E56E0150E56EA4EC26F0030EE126D6
:10131000C1EC35F0000E036E380E026EA00E016EA9
:101320000350E56E0250E56E0150E56EA4EC26F028
:10133000030EE126D9EC35F0000E036E380E026E76
:10134000A80E016E0350E56E0250E56E0150E56E89
:10135000A4EC26F0030EE12617EF11F0000E036E49
:10136000390E026E7A0E016E0350E56E0250E56E84
:101370000150E56EA4EC26F0030EE126000E036E8C
:10138000380E026E9C0E016E0350E56E0250E56E43
:101390000150E56EA4EC26F0030EE126C1EC35F019
:1013A000000E036E380E026EA00E016E0350E56E45
:1013B0000250E56E0150E56EA4EC26F0030EE12626
:1013C000CDEC35F0000E036E380E026EA80E016EE5
:1013D0000350E56E0250E56E0150E56EA4EC26F078
:1013E000030EE12617EF11F0000E036E390E026EA8
:1013F0008A0E016E0350E56E0250E56E0150E56EF7
:10140000A4EC26F0030EE126000E036E390E026EE8
:101410009A0E016E0350E56E0250E56E0150E56EC6
:10142000A4EC26F0030EE126C1EC35F0000E036EAD
:10143000390E026E2E0E016E0350E56E0250E56EFF
:101440000150E56EA4EC26F0030EE126CDEC35F05C
:10145000000E036E380E026EE20E016E0350E56E52
:101460000250E56E0150E56EA4EC26F0030EE12675
:1014700017EF11F0000E036E390E026EA60E016E0C
:101480000350E56E0250E56E0150E56EA4EC26F0C7
:10149000030EE1260050100A01E03DD00A0EE56E71
:1014A00066C0E5FF13EC2CF0016EE450E450300E02
:1014B000012601500101BD6F0A0EE56E66C0E5FF11
:1014C0003DEC2EF0016EE450E4500A0EE56E01C0D2
:1014D000E5FF13EC2CF0016EE450E450300E0126D1
:1014E00001500101BC6F640EE56E66C0E5FF3DEC86
:1014F0002EF0016EE450E4500A0EE56E01C0E5FFE7
:1015000013EC2CF0016EE450E450300E0126015033
:101510000101BB6F40D00050110A01E03CD00A0E1F
:10152000E56E67C0E5FF13EC2CF0016EE450E4506B
:10153000300E012601500101BD6F0A0EE56E67C035
:10154000E5FF3DEC2EF0016EE450E4500A0EE56E2E
:1015500001C0E5FF13EC2CF0016EE450E450300EB6
:10156000012601500101BC6F640EE56E67C0E5FF06
:101570003DEC2EF0016EE450E4500A0EE56E01C021
:10158000E5FF13EC2CF0016EE450E450300E012620
:1015900001500101BB6F010E026EBB0E016E800E89
:1015A000036E0350E56E0250E56E0150E56EA4EC4B
:1015B00026F0030EE126000E036E390E026EAC0E0D
:1015C000016E0350E56E0250E56E0150E56EA4EC2D
:1015D00026F0030EE126000E036E390E026E9A0EFF
:1015E000016E0350E56E0250E56E0150E56EA4EC0D
:1015F00026F0030EE126C1EC35F0000E036E390E25
:10160000026E2E0E016E0350E56E0250E56E015023
:10161000E56EA4EC26F0030EE126CDEC35F0000ECD
:10162000036E380E026EE20E016E0350E56E02503C
:10163000E56E0150E56EA4EC26F0030EE12617EFEF
:1016400011F00050120A11E1000E036E390E026E05
:10165000B60E016E0350E56E0250E56E0150E56E68
:10166000A4EC26F0030EE1263BD00050130A11E152
:10167000000E036E390E026EC80E016E0350E56E49
:101680000250E56E0150E56EA4EC26F0030EE12653
:1016900027D00050140A11E1000E036E390E026EBD
:1016A000DA0E016E0350E56E0250E56E0150E56EF4
:1016B000A4EC26F0030EE12613D00050150A10E129
:1016C000000E026E390E016EEC0E006E0250E56ED9
:1016D0000150E56E0050E56EA4EC26F0030EE12605
:1016E000000E026E380E016E5C0E006E0250E56E4A
:1016F0000150E56E0050E56EA4EC26F0030EE126E5
:10170000000E026E380E016E9C0E006E0250E56EE9
:101710000150E56E0050E56EA4EC26F0030EE126C4
:10172000CDEC35F0000E026E380E016EA00E006E8C
:101730000250E56E0150E56E0050E56EA4EC26F017
:10174000030EE126D9EC35F017EF11F0000E026E12
:10175000390E016EFE0E006E0250E56E0150E56E10
:101760000050E56EA4EC26F0030EE126000E026E9A
:10177000380E016E5C0E006E0250E56E0150E56E93
:101780000050E56EA4EC26F0030EE126000E026E7A
:10179000380E016E9C0E006E0250E56E0150E56E33
:1017A0000050E56EA4EC26F0030EE126C1EC35F006
:1017B000000E026E380E016EA00E006E0250E56E35
:1017C0000150E56E0050E56EA4EC26F0030EE12614
:1017D000CDEC35F017EF11F0000E026E3A0E016EEF
:1017E000100E006E0250E56E0150E56E0050E56E81
:1017F000A4EC26F0030EE126000E026E380E016EF8
:101800005C0E006E0250E56E0150E56E0050E56E14
:10181000A4EC26F0030EE126000E026E380E016ED7
:101820009C0E006E0250E56E0150E56E0050E56EB4
:10183000A4EC26F0030EE126CDEC35F0000E026E8E
:101840003A0E016E220E006E0250E56E0150E56EFA
:101850000050E56EA4EC26F0030EE12617EF11F020
:10186000000E026E3A0E016E300E006E0250E56EF2
:101870000150E56E0050E56EA4EC26F0030EE12663
:10188000A9EC35F0000E026E3A0E016E400E006EAD
:101890000250E56E0150E56E0050E56EA4EC26F0B6
:1018A000030EE126C1EC35F017EF11F0000E026EC9
:1018B0003A0E016E4C0E006E0250E56E0150E56E60
:1018C0000050E56EA4EC26F0030EE126A9EC35F0FD
:1018D000000E026E3A0E016E5E0E006E0250E56E54
:1018E0000150E56E0050E56EA4EC26F0030EE126F3
:1018F00017EF11F0000E026E3A0E016E4C0E006EE4
:101900000250E56E0150E56E0050E56EA4EC26F045
:10191000030EE126A9EC35F0000E026E3A0E016EC0
:10192000700E006E0250E56E0150E56E0050E56EDF
:10193000A4EC26F0030EE12617EF11F0000E026E64
:101940003A0E016E4C0E006E0250E56E0150E56ECF
:101950000050E56EA4EC26F0030EE126A9EC35F06C
:10196000000E026E3A0E016E820E006E0250E56E9F
:101970000150E56E0050E56EA4EC26F0030EE12662
:1019800017EF11F0000E026E3A0E016E4C0E006E53
:101990000250E56E0150E56E0050E56EA4EC26F0B5
:1019A000030EE126A9EC35F0000E026E3A0E016E30
:1019B000940E006E0250E56E0150E56E0050E56E2B
:1019C000A4EC26F0030EE12617EF11F0000E026ED4
:1019D0003A0E016EA60E006E0250E56E0150E56EE5
:1019E0000050E56EA4EC26F0030EE126A9EC35F0DC
:1019F000000E026E3A0E016EB80E006E0250E56ED9
:101A00000150E56E0050E56EA4EC26F0030EE126D1
:101A1000C1EC35F017EF11F0000E026E3A0E016EB8
:101A2000C20E006E0250E56E0150E56E0050E56E8C
:101A300074EC2EF0030EE126000E026E3A0E016EDB
:101A4000D00E006E0250E56E0150E56E0050E56E5E
:101A5000A4EC26F0030EE126A9EC35F0000E026E90
:101A60003A0E016EE20E006E0250E56E0150E56E18
:101A70000050E56EA4EC26F0030EE126C1EC35F033
:101A800017EF11F0000E026E3A0E016EEC0E006EB2
:101A90000250E56E0150E56E0050E56EA4EC26F0B4
:101AA000030EE126A9EC35F0000E026E3A0E016E2F
:101AB000B80E006E0250E56E0150E56E0050E56E06
:101AC000A4EC26F0030EE126C1EC35F017EF11F07F
:101AD000000E026E3A0E016EFE0E006E0250E56EB2
:101AE0000150E56E0050E56EA4EC26F0030EE126F1
:101AF00000016D510A0F006E000E00016E21016E93
:101B0000000E00016F21026E000E00017021036EB5
:101B1000000EE56E000EE56E000EE56E0A0EE56E37
:101B20000350E56E0250E56E0150E56E0050E56E23
:101B3000D2EC23F0006EF3CF01F0F4CF02F0E9CF46
:101B400003F0080EE126300E002600500001FE6F63
:101B500000016D510A0F006E000E00016E21016E32
:101B6000000E00016F21026E000E00017021036E55
:101B7000000EE56E000EE56E000EE56E0A0EE56ED7
:101B80000350E56E0250E56E0150E56E0050E56EC3
:101B900097EC25F0006EF3CF01F0F4CF02F0E9CF1F
:101BA00003F0080EE126000EE56E000EE56E000E55
:101BB000E56E0A0EE56E0350E56E0250E56E0150CB
:101BC000E56E0050E56ED2EC23F0006EF3CF01F02D
:101BD000F4CF02F0E9CF03F0080EE126300E002624
:101BE00000500001FD6F00016D510A0F006E000EE4
:101BF00000016E21016E000E00016F21026E000EC9
:101C000000017021036E000EE56E000EE56E000E01
:101C1000E56E640EE56E0350E56E0250E56E015010
:101C2000E56E0050E56E97EC25F0006EF3CF01F005
:101C3000F4CF02F0E9CF03F0080EE126000EE56EC6
:101C4000000EE56E000EE56E0A0EE56E0350E56EC1
:101C50000250E56E0150E56E0050E56ED2EC23F0C7
:101C6000006EF3CF01F0F4CF02F0E9CF03F0080EDD
:101C7000E126300E002600500001FC6F00016D517E
:101C80000A0F006E000E00016E21016E000E0001B1
:101C90006F21026E000E00017021036E000EE56ED2
:101CA000000EE56E030EE56EE80EE56E0350E56E80
:101CB0000250E56E0150E56E0050E56E97EC25F0A0
:101CC000006EF3CF01F0F4CF02F0E9CF03F0080E7D
:101CD000E126000EE56E000EE56E000EE56E0A0EC2
:101CE000E56E0350E56E0250E56E0150E56E005062
:101CF000E56ED2EC23F0006EF3CF01F0F4CF02F0EA
:101D0000E9CF03F0080EE126300E00260050000156
:101D1000FB6F00016D510A0F006E000E00016E2175
:101D2000016E000E00016F21026E000E0001702195
:101D3000036E000EE56E000EE56E270EE56E100ECA
:101D4000E56E0350E56E0250E56E0150E56E005001
:101D5000E56E97EC25F0006EF3CF01F0F4CF02F0C2
:101D6000E9CF03F0080EE126000EE56E000EE56EE9
:101D7000000EE56E0A0EE56E0350E56E0250E56E4C
:101D80000150E56E0050E56ED2EC23F0006EF3CF0B
:101D900001F0F4CF02F0E9CF03F0080EE126300E97
:101DA000002600500001FA6F000E016EFA0E006E60
:101DB000800E026E0250E56E0150E56E0050E56E39
:101DC000A4EC26F0030EE126000E026E380E016E22
:101DD000A80E006E0250E56E0150E56E0050E56EF3
:101DE000A4EC26F0030EE126A9EC35F0000E026EFD
:101DF0003B0E016E060E006E0250E56E0150E56E60
:101E00000050E56EA4EC26F0030EE126C1EC35F09F
:101E100017EF11F0000E026E390E016EA60E006E65
:101E20000250E56E0150E56E0050E56EA4EC26F020
:101E3000030EE1260A0EE56E68C0E5FF13EC2CF0F8
:101E4000006EE450E450300E002600500101BD6FDA
:101E50000A0EE56E68C0E5FF3DEC2EF0006EE45022
:101E6000E4500A0EE56E00C0E5FF13EC2CF0006EA6
:101E7000E450E450300E002600500101BC6F640EA7
:101E8000E56E68C0E5FF3DEC2EF0006EE450E450D6
:101E90000A0EE56E00C0E5FF13EC2CF0006EE45076
:101EA000E450300E002600500101BB6F010E016EA0
:101EB000BB0E006E800E026E0250E56E0150E56EA4
:101EC0000050E56EA4EC26F0030EE126000E026E33
:101ED0003B0E016E160E006E0250E56E0150E56E6F
:101EE0000050E56EA4EC26F0030EE126A9EC35F0D7
:101EF000000E026E3B0E016E200E006E0250E56E6B
:101F00000150E56E0050E56EA4EC26F0030EE126CC
:101F1000C1EC35F08CD1000E026E3B0E016E300E1E
:101F2000006E0250E56E0150E56E0050E56EA4ECC7
:101F300026F0030EE126000E026E3A0E016EB80E78
:101F4000006E0250E56E0150E56E0050E56EA4ECA7
:101F500026F0030EE126C1EC35F0000E026E3B0EBA
:101F6000016E400E006E0250E56E0150E56E0050AD
:101F7000E56EA4EC26F0030EE12659D1000E026EA8
:101F8000380E016E3E0E006E0250E56E0150E56E99
:101F90000050E56EA4EC26F0030EE126000EE56E7F
:101FA0000A0EE56E00018551E56E00018451E56E73
:101FB0006EEC27F0006EF3CF01F0040EE126300E38
:101FC000002600500101B46F000EE56E0A0EE56EAA
:101FD00000018551E56E00018451E56ED1EC28F0D9
:101FE000006EF3CF01F0040EE126000EE56E0A0E3E
:101FF000E56E0150E56E0050E56E6EEC27F0006E68
:10200000F3CF01F0040EE126300E0026005001014E
:10201000B26F000EE56E640EE56E00018551E56E4F
:1020200000018451E56ED1EC28F0006EF3CF01F091
:10203000040EE126000EE56E0A0EE56E0150E56E17
:102040000050E56E6EEC27F0006EF3CF01F0040E49
:10205000E126300E002600500101B16F010E016E25
:10206000B10E006E800E026E0250E56E0150E56EFC
:102070000050E56EA4EC26F0030EE126000E026E81
:102080003B0E016E480E006E0250E56E0150E56E8B
:102090000050E56EA4EC26F0030EE126000EE56E7E
:1020A0000A0EE56E00018751E56E00018651E56E6E
:1020B0006EEC27F0006EF3CF01F0040EE126300E37
:1020C000002600500101B86F000EE56E0A0EE56EA5
:1020D00000018751E56E00018651E56ED1EC28F0D4
:1020E000006EF3CF01F0040EE126000EE56E0A0E3D
:1020F000E56E0150E56E0050E56E6EEC27F0006E67
:10210000F3CF01F0040EE126300E0026005001014D
:10211000B76F000EE56E640EE56E00018751E56E47
:1021200000018651E56ED1EC28F0006EF3CF01F08E
:10213000040EE126000EE56E0A0EE56E0150E56E16
:102140000050E56E6EEC27F0006EF3CF01F0040E48
:10215000E126300E002600500101B66F010E016E1F
:10216000B60E006E800E026E0250E56E0150E56EF6
:102170000050E56EA4EC26F0030EE126000E026E80
:10218000390E016E360E006E0250E56E0150E56E9E
:102190000050E56EA4EC26F0030EE126A9EC35F024
:1021A000000E026E3B0E016E4C0E006E0250E56E8C
:1021B0000150E56E0050E56EA4EC26F0030EE1261A
:1021C000C1EC35F034D0000E026E3B0E016E580E9D
:1021D000006E0250E56E0150E56E0050E56EA4EC15
:1021E00026F0030EE126A9EC35F0000E026E3B0E40
:1021F000016E6A0E006E0250E56E0150E56E0050F1
:10220000E56EA4EC26F0030EE126C1EC35F0000EDD
:10221000026E3A0E016E220E006E0250E56E015003
:10222000E56E0050E56EA4EC26F0030EE126E4CF47
:1022300004F0E4CF03F0E4CF02F0E4CF01F0E4CF08
:1022400000F0E4CFD9FF1200D9CFE5FFE1CFD9FFED
:1022500000C0E5FF01C0E5FF02C0E5FF03C0E5FFE8
:1022600004C0E5FF05C0E5FF06C0E5FF07C0E5FFC8
:1022700008C0E5FF09C0E5FF0AC0E5FF0BC0E5FFA8
:102280000CC0E5FF0DC0E5FF0001C16B0001C26B92
:102290000001C36B0001C46B0001C56B010E00019E
:1022A000C66F010E0001C76F030E0001C86F070E55
:1022B0000001C96F0B0E0001CA6F0B0E0001CB6F3E
:1022C0001B0E0001CC6F130E0001CD6F130E000129
:1022D000CE6F030E0001CF6F030E0001D06F030E0F
:1022E0000001D16F070E0001D26F040E0001D36F01
:1022F0000C0E0001D46F080E0001D56F080E00010E
:10230000D66F180E0001D76F100E0001D86F1F0E88
:102310000001D96F1F0E0001DA6F030E0001DB6FA1
:10232000030E0001DC6F030E0001DD6F030E0001E0
:10233000DE6F030E0001DF6F030E0001E06F180E69
:102340000101006F180E0101016F180E0101026FEB
:10235000180E0101036F180E0101046F180E010120
:10236000056F180E0101066F180E0101076F0101BC
:10237000086B0101096B01010A6B01010B6B010183
:102380000C6B01010D6B01010E6B01010F6B180E3F
:102390000101106F180E0101116F180E0101126F6B
:1023A000180E0101136F180E0101146F180E0101B0
:1023B000156F1F0E0101166F1F0E0101176F01012E
:1023C000186B0101196B01011A6B01011B6B0101F3
:1023D0001C6B01011D6B1F0E01011E6F1F0E010101
:1023E0001F6F1F0E0101206F180E0101216F180EC3
:1023F0000101226F180E0101236F180E0101246FD5
:10240000180E0101256F180E0101266F180E01012B
:10241000276F1C0E0101286F020E0101296F010EAA
:1024200001012A6F010E01012B6F010E01012C6FBA
:10243000020E01012D6F040E01012E6F180E010115
:102440002F6F180E0101306F180E0101316F180E39
:102450000101326F180E0101336F180E0101346F44
:10246000180E0101356F180E0101366F180E0101AB
:10247000376F100E0101386F180E0101396F0C0E05
:1024800001013A6F040E01013B6F060E01013C6F22
:10249000020E01013D6F020E01013E6F010E0101AE
:1024A0003F6F1F0E0101406F1F0E0101416F0101BF
:1024B000426B0101436B0101446B0101456B01015A
:1024C000466B0101476B1F0E0101486F1F0E010192
:1024D000496F030E01014A6F060E01014B6F040E96
:1024E00001014C6F0C0E01014D6F080E01014E6F82
:1024F000100E01014F6F0101506B0101516B010181
:10250000526B0101536B0101546B080E0101556FB1
:10251000080E0101566F070E0101576F180E0101D9
:10252000586F0C0E0101596F030E01015A6F030E13
:1025300001015B6F010E01015C6F020E01015D6F15
:102540000C0E01015E6F180E01015F6F0101606BDF
:10255000010E0101616F030E0101626F020E0101A4
:10256000636F060E0101646F040E0101656F040EB6
:102570000101666F040E0101676F0101686B180E9F
:102580000101696F0E0E01016A6F060E01016B6F8A
:10259000060E01016C6F060E01016D6F060E010142
:1025A0006E6F060E01016F6F040E0101706F040E55
:1025B0000101716F040E0101726F040E0101736F4E
:1025C000040E0101746F060E0101756F030E010107
:1025D000766F0101776B060E0101786F060E01011F
:1025E000796F060E01017A6F060E01017B6F0C0EEA
:1025F00001017C6F0C0E01017D6F1C0E01017E6FCD
:1026000001017F6B0101806B0F0E0101816F0F0EC5
:102610000101826F0101836B0101846B0101856BF4
:102620000101866B0101876B0101886B0F0E0101AF
:10263000896F0F0E01018A6F030E01018B6F060E69
:1026400001018C6F0C0E01018D6F180E01018E6F50
:10265000100E01018F6F030E0101906F020E010138
:10266000916F060E0101926F0C0E0101936F0C0E1B
:102670000101946F180E0101956F1F0E0101966FF5
:102680001F0E0101976F0101986B0101996B010108
:102690009A6B01019B6B01019C6B01019D6B1F0EED
:1026A00001019E6F1F0E01019F6F006A016A026A9D
:1026B000200E036E4E0E046EFF0E032604220350FE
:1026C0000410FAE14AEC35F0400EE56E4AEC31F0C8
:1026D000E652000E015C02E1040E005CD8B06FEF20
:1026E00015F0FA6AFB6A0034FA36E834FA36FC0B65
:1026F000000FE56E270EFA22000EFB22E450F96E61
:1027000088EF13F00CEF14F090EF14F0EDEF14F0ED
:10271000036A046A056AFC0E0324066E0650080D5F
:10272000F450076EF3CF06F0000E0626010E0722C6
:10273000C10E0424086E000E0520096E040E035C11
:10274000D8700A6A0A360B6A0A5012E00B50082445
:102750000C6EE86A09200D6E0CC0E9FF0DC0EAFF9F
:10276000EFCF0CF00C50E56ECAEC31F0E65211D010
:102770000B5006240C6EE86A07200D6E0CC0E9FFB2
:102780000DC0EAFFEFCF0CF00C50E56ECAEC31F053
:10279000E6520B2A080E0B5CD7E3080E0426D8B0CD
:1027A000052A032A080E035CD8A0B5D7800EE56E73
:1027B0004AEC31F0E652000EE56ECAEC31F0E6521A
:1027C000010EE56ECAEC31F0E652040EE56ECAEC7D
:1027D00031F0E652050EE56ECAEC31F0E652C00E5D
:1027E000E56E4AEC31F0E652020EE56ECAEC31F0CD
:1027F000E652030EE56ECAEC31F0E652060EE56EC7
:10280000CAEC31F0E652070EE56ECAEC31F0E65242
:10281000010E006E016A63D1036A046A056AFC0E48
:102820000324066E0650080DF450076EF3CF06F031
:10283000400E0626010E0722200E0424086E010E0B
:102840000520096E040E035CD8700A6A0A360B6A0A
:102850000A5012E00B5008240C6EE86A09200D6E35
:102860000CC0E9FF0DC0EAFFEFCF0CF00C50E56E95
:10287000CAEC31F0E65211D00B5006240C6EE86A17
:1028800007200D6E0CC0E9FF0DC0EAFFEFCF0CF082
:102890000C50E56ECAEC31F0E6520B2A080E0B5CC8
:1028A000D7E3080E0426D8B0052A032A080E035CD5
:1028B000D8A0B5D7840EE56E4AEC31F0E652000E92
:1028C000E56ECAEC31F0E652010EE56ECAEC31F06D
:1028D000E652040EE56ECAEC31F0E652050EE56EE6
:1028E000CAEC31F0E652C40EE56E4AEC31F0E65225
:1028F000020EE56ECAEC31F0E652030EE56ECAEC4C
:1029000031F0E652060EE56ECAEC31F0E652070EE3
:10291000E56ECAEC31F0E652020E006E016ADFD0BD
:10292000036A046A056A600E0424066E010E05201F
:10293000076E086A08500624096EE86A07200A6EC6
:1029400009C0E9FF0AC0EAFFEFCF09F00950E56EC0
:10295000CAEC31F0E652082A080E085CEBE3080ED8
:102960000426D8B0052A032A040E035CDCE3880E93
:10297000E56E4AEC31F0E652000EE56ECAEC31F03D
:10298000E652010EE56ECAEC31F0E652000EE56E3D
:10299000CAEC31F0E652010EE56ECAEC31F0E652B7
:1029A000C80EE56E4AEC31F0E652020EE56ECAEC56
:1029B00031F0E652030EE56ECAEC31F0E652020E3B
:1029C000E56ECAEC31F0E652030EE56ECAEC31F06A
:1029D000E652030E006E016A82D0036A046A056A39
:1029E000FC0E0324066E0650080DF450076EF3CF5C
:1029F00006F0800E0626010E0722600E0424086EE3
:102A0000010E0520096E040E035CD8700A6A0A36AE
:102A10000B6A0A5012E00B5008240C6EE86A092079
:102A20000D6E0CC0E9FF0DC0EAFFEFCF0CF00C50AB
:102A3000E56ECAEC31F0E65211D00B5006240C6E54
:102A4000E86A07200D6E0CC0E9FF0DC0EAFFEFCF6A
:102A50000CF00C50E56ECAEC31F0E6520B2A080E71
:102A60000B5CD7E3080E0426D8B0052A032A080E0B
:102A7000035CD8A0B5D78C0EE56E4AEC31F0E65277
:102A8000000EE56ECAEC31F0E652010EE56ECAECBE
:102A900031F0E652040EE56ECAEC31F0E652050E56
:102AA000E56ECAEC31F0E652CC0EE56E4AEC31F040
:102AB000E652020EE56ECAEC31F0E652030EE56E08
:102AC000CAEC31F0E652060EE56ECAEC31F0E65281
:102AD000070EE56ECAEC31F0E652006A016A022A7E
:102AE000640E025CD8A058EF13F0E4CF0DF0E4CFF1
:102AF0000CF0E4CF0BF0E4CF0AF0E4CF09F0E4CF20
:102B000008F0E4CF07F0E4CF06F0E4CF05F0E4CF1F
:102B100004F0E4CF03F0E4CF02F0E4CF01F0E4CF1F
:102B200000F0E4CFD9FF1200D9CFE5FFE1CFD9FF04
:102B300000C0E5FF01C0E5FF02C0E5FF03C0E5FFFF
:102B400004C0E5FF05C0E5FF06C0E5FF07C0E5FFDF
:102B500008C0E5FF09C0E5FF020EDBCF00F0030E61
:102B6000DBCF01F0040EDBCF02F0FF0E036E00C0DE
:102B7000E9FF01C0F3FF02506CEC35F0046E045025
:102B8000310A2BE00450320A01E1A9D00450330A83
:102B900001E128D10450340A01E150D10450350A32
:102BA00001E178D10450360A02E120EF18F0045018
:102BB000370A02E193EF18F00450380A02E106EFF9
:102BC00019F00450390A02E179EF19F00450520A61
:102BD00002E1E8EF19F0E9EF19F00050010F046E7F
:102BE000000E0120056E000E0220066E04C0E9FFF3
:102BF00005C0F3FF06506CEC35F0046ED00E0426D1
:102C000004501DE10050020F056E000E0120066EFB
:102C1000000E0220076E05C0E9FF06C0F3FF075053
:102C20006CEC35F0056ED00E05260550E56E000EF5
:102C3000E56E7DEC28F0E652E652E9EF19F000501F
:102C4000020F056E000E0120066E000E0220076EB8
:102C500005C0E9FF06C0F3FF07506CEC35F0056EC8
:102C6000D00E05260550640DF3CF05F00050030F7C
:102C7000066E000E0120076E000E0220086E06C0D0
:102C8000E9FF07C0F3FF08506CEC35F0066ED00E7C
:102C9000062606500A0DF3CF06F006500526005012
:102CA000040F066E000E0120076E000E0220086E53
:102CB00006C0E9FF07C0F3FF08506CEC35F0066E64
:102CC00006500526D00E052604060550E56E045074
:102CD000E56E09EC25F0E652E652E9EF19F04AEC10
:102CE00035F00001F16B0101B06B010E046E0404BC
:102CF000056E066A05BE0668E10E0526000E062270
:102D000004500024076EE86A04BEE8680120086EDB
:102D1000E86A04BEE8680220096E07C0E9FF08C03F
:102D2000F3FF09506CEC35F0076E05C0E9FF06C0F3
:102D3000EAFF07C0EFFF042A0450800F6F0FD7E3AC
:102D4000110E046EEF0E0424056E066A05BE0668B9
:102D5000A00E0526010E062204500024076EE86A24
:102D600004BEE8680120086EE86A04BEE868022034
:102D7000096E07C0E9FF08C0F3FF09506CEC35F09D
:102D8000076E05C0E9FF06C0EAFF07C0EFFF042A8F
:102D90000450800F5F0FD6E3000E056EE10E046E47
:102DA000800E066E0650E56E0550E56E0450E56E29
:102DB000A4EC26F0030EE126A9EC35F0010E056E19
:102DC000A00E046E800E066E0650E56E0550E56E90
:102DD0000450E56EA4EC26F0030EE126340E036EDB
:102DE000E9EF19F00050010F046E000E0120056E8E
:102DF000000E0220066E04C0E9FF05C0F3FF065076
:102E00006CEC35F0046E056A04BE0568D00E04262D
:102E1000D8A005060450010A02E1055001E005D0E2
:102E2000010E0001716FE9EF19F004500510D8A4EC
:102E3000E9EF19F00001716BE9EF19F00050010F93
:102E4000046E000E0120056E000E0220066E04C006
:102E5000E9FF05C0F3FF06506CEC35F0046E056A1F
:102E600004BE0568D00E0426D8A005060450010A49
:102E700002E1055001E004D00001726BE9EF19F0A6
:102E800004500510D8A4E9EF19F0020E0001726F8A
:102E9000E9EF19F00050010F046E000E0120056EDD
:102EA000000E0220066E04C0E9FF05C0F3FF0650C5
:102EB0006CEC35F0046E056A04BE0568D00E04267D
:102EC000D8A005060550E56E0450E56E270EE56EA8
:102ED000100EE56E77EC29F0046EF3CF05F0040ECA
:102EE000E1260050020F066E000E0120076E000E54
:102EF0000220086E06C0E9FF07C0F3FF08506CEC23
:102F000035F0066E076A06BE0768D00E0626D8A002
:102F100007060750E56E0650E56E030EE56EE80EF7
:102F2000E56E77EC29F0066EF3CF07F0040EE1268C
:102F300006500426075005220050030F066E000EAF
:102F40000120076E000E0220086E06C0E9FF07C0D0
:102F5000F3FF08506CEC35F0066E076A06BE076892
:102F6000D00E0626D8A007060750E56E0650E56E7F
:102F7000000EE56E640EE56E77EC29F0066EF3CF79
:102F800007F0040EE12606500426075005220050E3
:102F9000040F066E000E0120076E000E0220086E60
:102FA00006C0E9FF07C0F3FF08506CEC35F0066E71
:102FB000076A06BE0768D00E0626D8A00706075087
:102FC000E56E0650E56E000EE56E0A0EE56E77ECD6
:102FD00029F0066EF3CF07F0040EE1260650042612
:102FE000075005220050050F066E000E0120076EE7
:102FF000000E0220086E06C0E9FF07C0F3FF08506C
:103000006CEC35F0066E076A06BE076806500426AB
:1030100007500522D00E0426D8A00506E86A05BE92
:10302000FF0E066E076E04500001806F0550000110
:10303000816F06500001826F07500001836FC9D174
:103040000050010F046E000E0120056E000E0220DC
:10305000066E04C0E9FF05C0F3FF06506CEC35F0C6
:10306000046E056A04BE0568D00E0426D8A00506C5
:103070000550E56E0450E56E000EE56E640EE56EDB
:1030800077EC29F0046EF3CF05F0040EE126005032
:10309000020F066E000E0120076E000E0220086E61
:1030A00006C0E9FF07C0F3FF08506CEC35F0066E70
:1030B000076A06BE0768D00E0626D8A00706075086
:1030C000E56E0650E56E000EE56E0A0EE56E77ECD5
:1030D00029F0066EF3CF07F0040EE1260650042611
:1030E000075005220050030F066E000E0120076EE8
:1030F000000E0220086E06C0E9FF07C0F3FF08506B
:103100006CEC35F0066E076A06BE0768D00E062620
:10311000D8A00706065004240001746F075005204C
:103120000001756F56D10050010F046E000E012092
:10313000056E000E0220066E04C0E9FF05C0F3FF15
:1031400006506CEC35F0046E056A04BE0568D00EBE
:103150000426D8A005060550E56E0450E56E000E65
:10316000E56E640EE56E77EC29F0046EF3CF05F0A2
:10317000040EE1260050020F066E000E0120076EBD
:10318000000E0220086E06C0E9FF07C0F3FF0850DA
:103190006CEC35F0066E076A06BE0768D00E062690
:1031A000D8A007060750E56E0650E56E000EE56EE6
:1031B0000A0EE56E77EC29F0066EF3CF07F0040EE9
:1031C000E12606500426075005220050030F066E24
:1031D000000E0120076E000E0220086E06C0E9FFF7
:1031E00007C0F3FF08506CEC35F0066E076A06BEA8
:1031F0000768D00E0626D8A0070606500424000152
:10320000766F075005200001776FE3D00050010F63
:10321000046E000E0120056E000E0220066E04C032
:10322000E9FF05C0F3FF06506CEC35F0046E056A4B
:1032300004BE0568D00E0426D8A005060550E56E2C
:103240000450E56E000EE56E640EE56E77EC29F035
:10325000046EF3CF05F0040EE1260050020F066E57
:10326000000E0120076E000E0220086E06C0E9FF66
:1032700007C0F3FF08506CEC35F0066E076A06BE17
:103280000768D00E0626D8A007060750E56E065040
:10329000E56E000EE56E0A0EE56E77EC29F0066E1F
:1032A000F3CF07F0040EE12606500426075005224E
:1032B0000050030F066E000E0120076E000E022064
:1032C000086E06C0E9FF07C0F3FF08506CEC35F04C
:1032D000066E076A06BE0768D00E0626D8A0070647
:1032E000065004240001786F075005200001796F13
:1032F00070D00050010F046E000E0120056E000E0C
:103300000220066E04C0E9FF05C0F3FF06506CEC16
:1033100035F0046E056A04BE0568D00E0426D8A0F8
:1033200005060550E56E0450E56E000EE56E640E70
:10333000E56E77EC29F0046EF3CF05F0040EE1267C
:103340000050020F066E000E0120076E000E0220D4
:10335000086E06C0E9FF07C0F3FF08506CEC35F0BB
:10336000066E076A06BE0768D00E0626D8A00706B6
:103370000750E56E0650E56E000EE56E0A0EE56E2E
:1033800077EC29F0066EF3CF07F0040EE126065025
:10339000042607500522030E0026000E01220222F9
:1033A00000C0E9FF01C0F3FF02506CEC35F0006E85
:1033B000016A00BE0168D00E0026D8A001060050A8
:1033C00004240001766F015005200001776F01D0C1
:1033D000036A0350E4CF09F0E4CF08F0E4CF07F02C
:1033E000E4CF06F0E4CF05F0E4CF04F0E4CF03F03F
:1033F000E4CF02F0E4CF01F0E4CF00F0E4CFD9FF56
:1034000012000001F26B0001F36B0001F46B00018C
:10341000F56B0A0E0001F66F0001F76B0001F86B07
:103420000001F96B006AFCEC35F007EC36F0D3ECE8
:103430002BF0F1EC35F076EC31F00CEC2FF01CECCD
:1034400031F020EC36F0000E026EF20E016E800EAE
:10345000036E0350E56E0250E56E0150E56E23ECFD
:1034600026F0016E030EE1260150EDE0000E026E23
:10347000F20E016E800E036E0350E56E0250E56E93
:103480000150E56E8FEC2BF0030EE12604000001E5
:10349000725104E000017251010A0CE125EC29F09F
:1034A0000001846FF3CF85F094EC22F00001866F69
:1034B000F3CF87F0000E026E7C0E016E800E036E5D
:1034C0000350E56E0250E56E0150E56E23EC26F0E8
:1034D000016E030EE12601501EE0000E026E7C0E0E
:1034E000016E800E036E0350E56E0250E56E0150D2
:1034F000E56E8FEC2BF0030EE126A8EC2EF0016EAA
:10350000015003E00001715102E1016A02D0010E95
:10351000016E01C073F04DEC2CF0016EF3CF02F0A0
:10352000F4CF03F00150021003101DE00350E56ECC
:103530000250E56E0150E56E60EC20F0046E030E63
:10354000E126045010E00350E56E0250E56E015094
:10355000E56E94EC15F0016E030EE1260150FF0AB2
:1035600002E001C000F00050E56E06EC00F0E6520B
:10357000350E005CD8B04DD1FA6AFB6A0034FA36D9
:10358000E834FA36FC0B960FE56E350EFA22000E83
:10359000FB22E450F96E35EF1BF039EF1BF03DEFE5
:1035A0001BF041EF1BF045EF1BF049EF1BF04DEF17
:1035B0001BF051EF1BF055EF1BF059EF1BF05DEFC7
:1035C0001BF061EF1BF065EF1BF069EF1BF06DEF77
:1035D0001BF071EF1BF075EF1BF079EF1BF07DEF27
:1035E0001BF081EF1BF085EF1BF089EF1BF08DEFD7
:1035F0001BF091EF1BF095EF1BF099EF1BF09DEF87
:103600001BF0A1EF1BF0A5EF1BF0A9EF1BF0ADEF36
:103610001BF0B1EF1BF0B5EF1BF0B9EF1BF0BDEFE6
:103620001BF0C1EF1BF0C5EF1BF0C9EF1BF0CDEF96
:103630001BF0D1EF1BF0D5EF1BF0D9EF1BF0DDEF46
:103640001BF0E1EF1BF0E5EF1BF0E9EF1BF0EDEFF6
:103650001BF0F1EF1BF0F5EF1BF0F9EF1BF0FDEFA6
:103660001BF001EF1CF005EF1CF00CEC1CF0006EE1
:10367000EAD620EC33F0006EE6D6FEEC32F0006EB7
:10368000E2D6B9EC33F0006EDED6DCEC32F0006E40
:10369000DAD69CEC33F0006ED6D6BAEC32F0006E7F
:1036A000D2D698EC32F0006ECED662EC2AF0006EE4
:1036B000CAD616EC2AF0006EC6D6F9EC2AF0006ED7
:1036C000C2D6AEEC2AF0006EBED635EC23F0006E0A
:1036D000BAD676EC32F0006EB6D67FEC33F0006EE0
:1036E000B2D6BDEC30F0006EAED624EC28F0006E01
:1036F000AAD6CBEC27F0006EA6D654EC32F0006EC2
:10370000A2D632EC32F0006E9ED610EC32F0006E93
:103710009AD6EEEC31F0006E96D68DEC30F0006E5D
:1037200092D65DEC30F0006E8ED62DEC30F0006E4F
:103730008AD6FDEC2FF0006E86D6CDEC2FF0006E11
:1037400082D69DEC2FF0006E7ED66DEC2FF0006ED1
:103750007AD68DEC30F0006E76D606EC2EF0006E48
:1037600072D6CFEC2DF0006E6ED698EC2DF0006E78
:103770006AD661EC2DF0006E66D62AEC2DF0006E54
:1037800062D6F3EC2CF0006E5ED6BCEC2CF0006E32
:103790005AD685EC2CF0006E56D618EC36F0006E3A
:1037A00052D63EEC34F0006E4ED637EC35F0006E5B
:1037B0004AD623EC35F0006E46D60FEC35F0006E9D
:1037C00042D6FBEC34F0006E3ED6A0EC34F0006E36
:1037D0003AD625EC34F0006E36D6DAEC2EF0006ED8
:1037E00032D629EC21F0006E2ED60CEC27F0006EBC
:1037F0002AD688EC34F0006E26D60CEC34F0006E3D
:1038000022D6E7EC34F0006E1ED610EC36F0006ED7
:103810001AD6006A18D61200D9CFE5FFE1CFD9FF3A
:1038200000C0E5FFEDEC30F0006E005002E1010E4B
:1038300001D0E86AE4CF00F0E4CFD9FF1200543A97
:10384000000043204C3A0000200053454E534F5295
:103850004553204F46462020202000000A00333ADE
:103860004D454E55000020202050455249474F21DC
:1038700000002020202020202020202000002020C8
:10388000414C2E204F4646200000333A414C4152D5
:103890004D20343A4C45442020200000353A0000A9
:1038A0002020202020363A00202020202000333AFB
:1038B000504F52545320343A544553544500333AF0
:1038C0005445434C41444F2020202020202000001C
:1038D000333A54454D502020343A4C554D49202020
:1038E0000000202020200000333A54454D504F2046
:1038F00020202020202020200000333A414C544139
:103900002020343A4241495841200000542E2041A1
:103910004C54413A2000202020202020202020202C
:103920002000333A2B20342E2D20353A000020364B
:103930003A004F4B000020202000542E20424149E5
:10394000583A20004C2E20414C54413A20004C2E35
:103950002042414958413A20000054454D504F3AC9
:1039600020002020202020202000333A4C454431E4
:103970002020343A4C4544320A00332E4C45443022
:1039800020202020202020200A004C4947412F449D
:1039900045534C49474120200A00353A2B20332E0D
:1039A0002D20343A000050574D3A2000202020208E
:1039B0002020200A0000333A504531202020343A9C
:1039C0005045322020200000333A5045332020203B
:1039D000343A5045342020200000333A50453520F9
:1039E0002020343A5045362020200000333A5045FC
:1039F00037202020343A5045382020200000333A28
:103A0000534149444120343A454E54524441000008
:103A1000333A4F4E20343A4F464620353A464C50C2
:103A200000002020202020202020202020202000F6
:103A3000544553544520444F204C434420202000FB
:103A4000353A4F4B20202020363A0000544553543D
:103A50004520444F205445434C41444F00004F4BB8
:103A60003A33202020202020202020202020000069
:103A70004F4B3A34202020202020202020202020BE
:103A800000004F4B3A3520202020202020202020ED
:103A9000202000004F4B3A362020202020202020DC
:103AA00020202020000054455354452044412053F9
:103AB000455249414C200000333A4F4B20202034DE
:103AC0003A0054455354452053455249414C000057
:103AD0004D454E534147454D20454E564941444181
:103AE0000000353A4F4B202020363A0054455354BD
:103AF0004520444F53204C45445320200000544956
:103B00004D45523A2000363A2B20342E2D20353A9E
:103B10004F4B20333A00202020202020202020005E
:103B2000353A2B20332E2D20363A4F4B20343A0095
:103B300054455354452053454E534F5245530A0064
:103B40002020202020200000204C3A00353A4F4B06
:103B50002020202020363A0046494D20444F532053
:103B600054455354455320200000343A0000D9CF27
:103B7000E5FFE1CFD9FF00C0E5FF01C0E5FF02C0CE
:103B8000E5FF03C0E5FF04C0E5FF05C0E5FF06C093
:103B9000E5FF07C0E5FF020EDBCF00F0030EDBCF31
:103BA00001F0040EDBCF02F0050EDBCF03F0060EB2
:103BB000DBCF04F0070EDBCF05F0080EDBCF06F0FD
:103BC000090EDBCF07F000500101BF6F0150C06F3D
:103BD0000250C16F0350C26F04500101C36F055002
:103BE000C46F0650C56F0750C66F0101BF51010178
:103BF000C503F4CF01F0F3CF00F000500101C96F0D
:103C00000150CA6F0101BF510101C303F4CF01F09C
:103C1000F3CF00F000500101C76F0150C86F0101E0
:103C2000C2510101C303F3CF00F00101CA510026C4
:103C30000050CA6F0101C1510101C403F3CF00F06C
:103C40000101CA5100260050CA6F0101C151010192
:103C5000C303F4CF01F0F3CF00F00101C9510026F6
:103C6000CA5101220050C96F0150CA6F0101C051F1
:103C70000101C403F4CF01F0F3CF00F00101C951F9
:103C80000026CA5101220050C96F0150CA6F0101BC
:103C9000C0510101C503F3CF00F000500101CE6F08
:103CA0000101C0510101C303F4CF01F0F3CF00F0D3
:103CB00000500101CC6F0150CD6F0101BF510101D6
:103CC000C603F3CF00F000500101D26F0101BF51D4
:103CD0000101C403F4CF01F0F3CF00F00050010163
:103CE000D06F0150D16F0101CB6B0101CF6B01018E
:103CF000CB510101C725006E0101CC510101C82142
:103D0000016E0101CD510101C921026E0101CE51A7
:103D10000101CA21036E0050C76F0150C86F0250E5
:103D2000C96F0350CA6F0101CF510101C725006E51
:103D30000101D0510101C821016E0101D1510101E0
:103D4000C921026E0101D2510101CA21036E03C0D3
:103D5000E9FF02C0F4FF01C0F3FF0050E4CF07F019
:103D6000E4CF06F0E4CF05F0E4CF04F0E4CF03F0B5
:103D7000E4CF02F0E4CF01F0E4CF00F0E4CFD9FFCC
:103D80001200D9CFE5FFE1CFD9FF00C0E5FF01C0A8
:103D9000E5FF020EDBCF00F0030EDBCF01F0010EDA
:103DA000005CD8A0B7D0090E005CD8B0B3D0000634
:103DB000FA6AFB6A0034FA36E834FA36FC0BCE0FA6
:103DC000E56E3D0EFA22000EFB22E450F96EF7EF8D
:103DD0001EF00AEF1FF01DEF1FF030EF1FF043EF52
:103DE0001FF055EF1FF067EF1FF079EF1FF0015044
:103DF000010A02E1828A8ED0015006E18250006EF3
:103E0000DF0E0014826E86D00150020A01E082D0DB
:103E1000827A80D00150010A02E180867BD0015075
:103E200006E18050006EF70E0014806E73D00150D2
:103E3000020A01E06FD080766DD00150010A02E1E4
:103E4000808468D0015006E18050006EFB0E0014A3
:103E5000806E60D00150020A01E05CD080745AD0BC
:103E60000150010A02E1818A55D0015006E18150DA
:103E7000006EDF0E0014816E4DD00150020A01E089
:103E800049D0817A47D00150010A02E1818842D0AD
:103E9000015006E18150006EEF0E0014816E3AD0A1
:103EA0000150020A37E1817835D00150010A02E160
:103EB000848430D0015006E18450006EFB0E001463
:103EC000846E28D00150020A25E1847423D0015069
:103ED000010A02E1808A1ED0015006E18050006E86
:103EE000DF0E0014806E16D00150020A13E1807AB2
:103EF00011D00150010A02E180880CD0015006E186
:103F00008050006EEF0E0014806E04D00150020A43
:103F100001E18078E4CF01F0E4CF00F0E4CFD9FFF5
:103F20001200D9CFE5FFE1CFD9FF00C0E5FF01C006
:103F3000E5FF02C0E5FF03C0E5FF04C0E5FF05C0E3
:103F4000E5FF06C0E5FF07C0E5FF08C0E5FF09C0C3
:103F5000E5FF0AC0E5FF0BC0E5FF0CC0E5FF0DC0A3
:103F6000E5FF020EDBCF00F0030EDBCF01F0040E05
:103F7000DBCF02F0050EDBCF03F0060EDBCF04F043
:103F8000070EDBCF05F0080EDBCF06F0090EDBCF06
:103F900007F0D88003AED890086A083608500FE0C2
:103FA000031C0C6E021C0B6E011C0A6E001C096EB9
:103FB000092A0DE10A2A0BE10B4A0C2A08D000C09D
:103FC00009F001C00AF002C00BF003C00CF0D88069
:103FD00007AED890006A003600500FE0071C0D6E47
:103FE000061C036E051C026E041C016E012A0DE105
:103FF000022A0BE1034A0D2A08D004C001F005C0D3
:1040000002F006C003F007C00DF00D50E56E03503E
:10401000E56E0250E56E0150E56E0C50E56E0B50FA
:10402000E56E0A50E56E0950E56E97EC25F0016EDD
:10403000F3CF02F0F4CF03F0E9CF04F0080EE1264D
:104040000050081A085016E0041C076E031C066E88
:10405000021C056E011C006E002A04E1052A02E123
:10406000064A072A07C0E9FF06C0F4FF05C0F3FFB0
:10407000005007D004C0E9FF03C0F4FF02C0F3FF03
:104080000150E4CF0DF0E4CF0CF0E4CF0BF0E4CF1F
:104090000AF0E4CF09F0E4CF08F0E4CF07F0E4CF72
:1040A00006F0E4CF05F0E4CF04F0E4CF03F0E4CF72
:1040B00002F0E4CF01F0E4CF00F0E4CFD9FF12002A
:1040C000D9CFE5FFE1CFD9FF00C0E5FF01C0E5FF93
:1040D00002C0E5FF03C0E5FF04C0E5FF05C0E5FF42
:1040E00006C0E5FF07C0E5FF08C0E5FF09C0E5FF22
:1040F000020EDBCF00F0030EDBCF01F0040EDBCFAE
:1041000002F0050E036E046A04C005F0042A000ED6
:1041100005BEFF0E076E066E0050052601500622F2
:104120000250072205C0E9FF06C0F3FF07506CEC00
:1041300035F0056E0550E8E1FD0E0426045000241C
:10414000056EE86A04BEE8680120066EE86A04BEEF
:10415000E8680220076E05C0E9FF06C0F3FF0750BC
:104160006CEC35F0056E0550800F3F0F08E3C90E6B
:104170000524066E0650100DF3CF06F006D0D00EC3
:1041800005260550100DF3CF06F004C005F0076AB0
:1041900004BE0768054A072A086A07BE0868005077
:1041A0000526015007220250082205C0E9FF07C07A
:1041B000F3FF08506CEC35F0056E0550800F3F0F93
:1041C00006E3C90E0524076E0750062604D0D00E5C
:1041D000052605500626056A0550800FF36E04502B
:1041E000800FF35C19E205500024076EE86A05BEF3
:1041F000E8680120086EE86A05BEE8680220096EDA
:1042000007C0E9FF08C0F3FF09506CEC35F0076EFA
:104210000750031A052AE0D70350061802E1010EE1
:1042200001D0E86AE4CF09F0E4CF08F0E4CF07F06A
:10423000E4CF06F0E4CF05F0E4CF04F0E4CF03F0E0
:10424000E4CF02F0E4CF01F0E4CF00F0E4CFD9FFF7
:104250001200D9CFE5FFE1CFD9FF00C0E5FF01C0D3
:10426000E5FF02C0E5FF03C0E5FF04C0E5FF05C0B0
:10427000E5FF000E016E690E006E800E026E0250A8
:10428000E56E0150E56E0050E56E23EC26F0006E01
:10429000030EE126005028E0000E016E690E006E4C
:1042A000800E026E0250E56E0150E56E0050E56E24
:1042B0008FEC2BF0030EE126020EE56E000EE56E8C
:1042C0007DEC28F0E652E652020EE56E010EE56E38
:1042D0007DEC28F0E652E652020EE56E020EE56E27
:1042E0007DEC28F0E652E652EDEC30F0006EA1ECE9
:1042F00031F0016E0150030A1DE100016D510A0FFA
:10430000026E000E00016E21036E000E00016F218F
:10431000046E000E00017021056E025000016D6FE9
:10432000035000016E6F045000016F6F05500001D3
:10433000706F43D00150010A01E036D000016D5189
:10434000F60F016EFF0E00016E21026EFF0E0001DE
:104350006F21036EFF0E00017021046E04500001F6
:10436000705D0BE1035000016F5D07E10250000139
:104370006E5D03E1015000016D5D09E200016D6BAE
:1043800000016E6B00016F6B0001706B16D0015065
:1043900000016D6F025000016E6F035000016F6FDE
:1043A00004500001706F09D00050020A02E1300E83
:1043B00005D0005002E1E86A01D02F0EE4CF05F0ED
:1043C000E4CF04F0E4CF03F0E4CF02F0E4CF01F057
:1043D000E4CF00F0E4CFD9FF1200D9CFE5FFE1CF61
:1043E000D9FF00C0E5FF01C0E5FF020EDBCF00F002
:1043F000030EDBCF01F0010E005CD8A08ED0090EB9
:10440000005CD8B08AD00006FA6AFB6A0034FA363B
:10441000E834FA36FC0B260FE56E440EFA22000E45
:10442000FB22E450F96E23EF22F031EF22F03FEF50
:1044300022F04DEF22F05AEF22F067EF22F074EFF6
:1044400022F081EF22F0015006E19450006EDF0E61
:104450000014946E62D00150010A01E05ED0948A8B
:104460005CD0015006E19250006EF70E0014926E7F
:1044700054D00150010A01E050D092864ED0015034
:1044800006E19250006EFB0E0014926E46D0015071
:10449000010A01E042D0928440D0015006E19350DD
:1044A000006EDF0E0014936E38D00150010A35E122
:1044B000938A33D0015006E19350006EEF0E001442
:1044C000936E2BD00150010A28E1938826D0015029
:1044D00006E19650006EFB0E0014966E1ED0015041
:1044E000010A1BE1968419D0015006E19250006E3A
:1044F000DF0E0014926E11D00150010A0EE1928A73
:104500000CD0015006E19250006EEF0E0014926E36
:1045100004D00150010A01E19288E4CF01F0E4CF18
:1045200000F0E4CFD9FF1200D9CFE5FFE1CFD9FFEA
:1045300000C0E5FF01C0E5FF02C0E5FF03C0E5FFE5
:1045400004C0E5FF05C0E5FF006A016A0001725181
:10455000010A01E078D0C250020BE840026E02501E
:104560000BE10001635108E1050EC26E70EC34F0FE
:10457000C282010E0001636FC250020BE840026E5E
:1045800002501AE10001635117E0C4CF64F000014A
:10459000656B000164510001656F0001646BC3CF5E
:1045A00002F0036A025000016427035000016523F2
:1045B0000001636B0001726B64C002F065C003F020
:1045C000046A056A6B0E0226420E0322FF0E0422C5
:1045D00005220550E56E0450E56E0350E56E02506D
:1045E000E56E000EE56E000EE56E000EE56E640EE3
:1045F000E56EB7EC1DF0026EF3CF03F0F4CF04F0DC
:10460000E9CF05F0080EE126000EE56E000EE56E1E
:10461000410EE56EAB0EE56E0550E56E0450E56E9D
:104620000350E56E0250E56E91EC1FF0026EF3CF81
:1046300003F0F4CF04F0E9CF05F0080EE1260250B4
:10464000006E0350016E01C0F3FF0050E4CF05F08F
:10465000E4CF04F0E4CF03F0E4CF02F0E4CF01F0C4
:10466000E4CF00F0E4CFD9FF1200D9CFE5FFE1CFCE
:10467000D9FF00C0E5FF01C0E5FF02C0E5FF03C0B0
:10468000E5FF04C0E5FF05C0E5FFEDEC30F0006E8E
:10469000A1EC31F0016E01501CE1000180510A0FC4
:1046A000026E000E00018121036E000E00018221C6
:1046B000046E000E00018321056E02500001806F20
:1046C00003500001816F04500001826F055000010A
:1046D000836F80C002F081C003F082C004F083C009
:1046E00005F0000E055C08E1010E045C05E1860E94
:1046F000035C02E1A10E025C0CE3A00E0001806FDE
:10470000860E0001816F010E0001826F0001836B34
:1047100015D00150010A12E1F60E0226FF0E032207
:104720000422052202500001806F03500001816FB6
:1047300004500001826F05500001836F000E0001DC
:10474000835D0BE1000E0001825D07E1000E0001B8
:10475000815D03E10A0E0001805D0AE20A0E00019C
:10476000806F0001816B0001826B0001836B0AD0B6
:104770000050020A02E1E86A06D00050030A02E192
:10478000050E01D00C0EE4CF05F0E4CF04F0E4CF29
:1047900003F0E4CF02F0E4CF01F0E4CF00F0E4CF87
:1047A000D9FF1200D9CFE5FFE1CFD9FF00C0E5FF67
:1047B00001C0E5FF02C0E5FF03C0E5FF04C0E5FF5F
:1047C00005C0E5FF06C0E5FF07C0E5FF08C0E5FF3F
:1047D00009C0E5FF0AC0E5FF020EDBCF00F0030EC3
:1047E000DBCF01F0040EDBCF02F0050EDBCF03F0D0
:1047F000060EDBCF04F0070EDBCF05F0080EDBCF93
:1048000006F0090EDBCF07F0086A04500510061009
:10481000071005E1E968F468F368E86847D0096AB9
:104820000750800BE8440A6E0A501BE1045004262E
:104830000536063607360750035C08E10650025C71
:1048400005E10550015C02E10450005C06E2D890ED
:10485000073206320532043204D0092A09C008F0B2
:10486000DFD70750035C08E10650025C05E1055004
:10487000015C02E10450005C08E30450005E055056
:10488000015A0650025A0750035AD890073206328E
:104890000532043208C009F008060950E2E103C0FD
:1048A000E9FF02C0F4FF01C0F3FF0050E4CF0AF0BB
:1048B000E4CF09F0E4CF08F0E4CF07F0E4CF06F04E
:1048C000E4CF05F0E4CF04F0E4CF03F0E4CF02F04E
:1048D000E4CF01F0E4CF00F0E4CFD9FF1200D8CF4D
:1048E000E5FFE0CFE5FFE56EF3CFE5FFF4CFE5FFB1
:1048F000E9CFE5FFEACFE5FFFACFE5FFFBCFE5FF24
:10490000D9CFE5FFE1CFD9FF00C0E5FF01C0E5FF4A
:10491000F250040BD8A4010E006E00501CE0000100
:104920008E51006E016A0050D76E00018D51006EED
:10493000016A0050D66E0001892B08E300018A2B22
:1049400005E300018B3F02D000018C2BF250006E7A
:10495000FB0E0014F26E9E50200BD8A4010E006EC8
:104960000050D8B43ED0AECFD9F100019551D8A4B3
:1049700038D00101D9513C0A08E10101DA6B00018C
:10498000996B010E0001966F2CD00101D9513E0A9E
:1049900004E1010E0001956F24D0280E0101DA5DBB
:1049A0001DE2990E0101DA25006E016A000E012256
:1049B00000C0E9FF01C0EAFFD9C1EFFF0101DA2B16
:1049C000990E0101DA25006E016A000E012200C075
:1049D000E9FF01C0EAFF000EEF6E03D0010E0001F7
:1049E000976FE4CF01F0E4CF00F0E4CFD9FFE4CF3C
:1049F000FBFFE4CFFAFFE4CFEAFFE4CFE9FFE4CF27
:104A0000F4FFE4CFF3FFE450E4CFE0FFE4CFD8FFBE
:104A10001000D9CFE5FFE1CFD9FF00C0E5FF01C00D
:104A2000E5FF02C0E5FF03C0E5FF04C0E5FF05C0E8
:104A3000E5FF020EDBCF00F0030EDBCF01F00050EC
:104A400004E00050010A2CE063D00150CB02F4CF07
:104A500002F0F3CF00F0000EE56E190EE56E025085
:104A6000E56E0050E56ED1EC28F0006EF3CF02F059
:104A7000040EE126030E0216D8900230046E0030B8
:104A8000036ED890043203320350BB6E030E001441
:104A9000036E046A0338F00B046E0450BA1238D067
:104AA000036ACBCF04F0056A044A052A0550E56E77
:104AB0000450E56E0350E56E0150E56E77EC29F089
:104AC000006EF3CF02F0040EE126000EE56E190E23
:104AD000E56E0250E56E0050E56ED1EC28F0006EF8
:104AE000F3CF02F0040EE126030E0216D890023036
:104AF000036E0030016ED890033201320150BE6E59
:104B0000030E0016026A0038F00B016E0150BD1250
:104B1000E4CF05F0E4CF04F0E4CF03F0E4CF02F0FB
:104B2000E4CF01F0E4CF00F0E4CFD9FF1200D9CFF9
:104B3000E5FFE1CFD9FF00C0E5FF01C0E5FF02C0FE
:104B4000E5FF03C0E5FF04C0E5FF05C0E5FF06C0C3
:104B5000E5FF07C0E5FF08C0E5FF09C0E5FF0AC0A3
:104B6000E5FF0BC0E5FF0CC0E5FF0DC0E5FF020E41
:104B7000DBCF00F0030EDBCF01F0040EDBCF02F041
:104B8000050EDBCF03F0060EDBCF04F0070EDBCF04
:104B900005F0080EDBCF06F0090EDBCF07F0086A40
:104BA000096A0A6A0B6A200E0C6E0350800BE844F7
:104BB0000D6E0050002601360236033608500826D6
:104BC00009360A360B360D50D8A4088007500B5C06
:104BD00008E106500A5C05E10550095C02E1045059
:104BE000085C09E30450085E0550095A06500A5A49
:104BF00007500B5A00800C2ED8D703C0E9FF02C023
:104C0000F4FF01C0F3FF0050E4CF0DF0E4CF0CF04F
:104C1000E4CF0BF0E4CF0AF0E4CF09F0E4CF08F0E2
:104C2000E4CF07F0E4CF06F0E4CF05F0E4CF04F0E2
:104C3000E4CF03F0E4CF02F0E4CF01F0E4CF00F0E2
:104C4000E4CFD9FF1200D9CFE5FFE1CFD9FF00C0F3
:104C5000E5FF01C0E5FF02C0E5FF03C0E5FF04C0BA
:104C6000E5FF05C0E5FF06C0E5FF07C0E5FF08C09A
:104C7000E5FF09C0E5FF0AC0E5FF0BC0E5FF020E36
:104C8000DBCF00F0030EDBCF01F0040EDBCF02F030
:104C90008EEC35F0036EF3CF04F0F4CF05F0E9CFDE
:104CA00006F000C0E9FF01C0F3FF025042EC33F010
:104CB000076EF3CF08F0F4CF09F0E9CF0AF0040E45
:104CC0000026000E0122022200C0E9FF01C0F3FF0E
:104CD000025042EC33F0006EF3CF01F0F4CF02F05B
:104CE000E9CF0BF00050072601500822025009229C
:104CF0000B500A2206500A5C08E10550095C05E1E8
:104D00000450085C02E10350075C02E2010E01D08E
:104D1000E86AE4CF0BF0E4CF0AF0E4CF09F0E4CF87
:104D200008F0E4CF07F0E4CF06F0E4CF05F0E4CFDD
:104D300004F0E4CF03F0E4CF02F0E4CF01F0E4CFDD
:104D400000F0E4CFD9FF1200D9CFE5FFE1CFD9FFC2
:104D500000C0E5FF01C0E5FF02C0E5FF03C0E5FFBD
:104D600004C0E5FF05C0E5FF06C0E5FF07C0E5FF9D
:104D700008C0E5FF020EDBCF00F0030EDBCF01F031
:104D8000040EDBCF02F000C003F001C004F002C04B
:104D900005F000C0E9FF01C0F3FF02506CEC35F0F4
:104DA000066E065024E00350005C076E0450015864
:104DB000086E0850800F800F02E1100E075C17E2AA
:104DC00006500A0A0AE1C00EE56E4AEC31F0E652DE
:104DD000002A02E3014A022ADCD7002A02E3014A40
:104DE000022A0650E56ECAEC31F0E652D2D7E4CF83
:104DF00008F0E4CF07F0E4CF06F0E4CF05F0E4CF0D
:104E000004F0E4CF03F0E4CF02F0E4CF01F0E4CF0C
:104E100000F0E4CFD9FF1200D9CFE5FFE1CFD9FFF1
:104E200000C0E5FF01C0E5FF02C0E5FF03C0E5FFEC
:104E300000016851E56E000EE56E09EC25F0E652C2
:104E4000E65200016851E56E010EE56E09EC25F0B1
:104E5000E652E652EDEC30F0006EA1EC31F0016E5E
:104E60000150020A13E168C002F0036A024A032AF1
:104E70000350800F7F0F02E1000E025C04E3FF0E7F
:104E80000001686F1FD00001682B1CD0015010E199
:104E900068C001F0026AFF0E01260222D88002AE2D
:104EA000D89003E30001686B0DD0000168070AD0B9
:104EB0000050030A02E1310E06D00050010A02E15F
:104EC000E86A01D0300EE4CF03F0E4CF02F0E4CF83
:104ED00001F0E4CF00F0E4CFD9FF1200D9CFE5FF15
:104EE000E1CFD9FF00C0E5FF01C0E5FF02C0E5FF4B
:104EF00003C0E5FF04C0E5FF05C0E5FF06C0E5FF10
:104F0000020EDBCF00F0030EDBCF01F0040EDBCF8F
:104F100002F0050EDBCF03F0046A056A0350800B34
:104F2000E844066E065011E1025002260336035093
:104F3000015C02E10250005C04E2D89003320232CC
:104F400004D0052A05C004F0E9D70350015C02E152
:104F50000250005C04E30250005E0350015AD890F6
:104F60000332023204C005F004060550EEE101C030
:104F7000F3FF0050E4CF06F0E4CF05F0E4CF04F0F7
:104F8000E4CF03F0E4CF02F0E4CF01F0E4CF00F08F
:104F9000E4CFD9FF1200D9CFE5FFE1CFD9FF00C0A0
:104FA000E5FF01C0E5FF02C0E5FF03C0E5FF00012A
:104FB0006751E56E010EE56E09EC25F0E652E6520A
:104FC000EDEC30F0006EA1EC31F0016E0150020A00
:104FD00013E167C002F0036A024A032A0350800FFC
:104FE0007F0F02E1000E025C04E3FF0E0001676F19
:104FF0001FD00001672B1CD0015010E167C001F0E9
:10500000026AFF0E01260222D88002AED89003E386
:105010000001676B0DD0000167070AD00050030A3A
:1050200002E10D0E06D00050010A02E1E86A01D04B
:10503000110EE4CF03F0E4CF02F0E4CF01F0E4CFAF
:1050400000F0E4CFD9FF1200D9CFE5FFE1CFD9FFBF
:1050500000C0E5FF01C0E5FF02C0E5FF03C0E5FFBA
:1050600000016651E56E000EE56E09EC25F0E65292
:10507000E652EDEC30F0006EA1EC31F0016E015023
:10508000020A13E166C002F0036A024A032A0350CF
:10509000800F7F0F02E1000E025C04E3FF0E0001AF
:1050A000666F1FD00001662B1CD0015010E166C056
:1050B00001F0026AFF0E01260222D88002AED890CB
:1050C00003E30001666B0DD0000166070AD00050B3
:1050D000030A02E10D0E06D00050010A02E1E86A5F
:1050E00001D0100EE4CF03F0E4CF02F0E4CF01F0E2
:1050F000E4CF00F0E4CFD9FF1200D9CFE5FFE1CF34
:10510000D9FF00C0E5FF01C0E5FF020EDBCF00F0D4
:10511000030EDBCF01F0030E015C3AE2FA6AFB6A90
:105120000134FA36E834FA36FC0B3A0FE56E510ECC
:10513000FA22000EFB22E450F96EA3EF28F0B0EF44
:1051400028F0BCEF28F0010E016E005005E0E86C7D
:10515000D8900136010FFDE3011E015082161AD0CE
:10516000010E016E005005E0E86CD8900136010F89
:10517000FDE3015082120ED0010E016E005005E0D9
:10518000E86CD8900136010FFDE30150821A02D07D
:105190008250826AE4CF01F0E4CF00F0E4CFD9FF7F
:1051A0001200D9CFE5FFE1CFD9FF00C0E5FF01C074
:1051B000E5FF02C0E5FF03C0E5FF04C0E5FF05C051
:1051C000E5FF06C0E5FF07C0E5FF020EDBCF00F0FC
:1051D000030EDBCF01F0040EDBCF02F0050EDBCFB8
:1051E00003F0046A056A100E066E0150800BE84455
:1051F000076E00500026013604500426053607507D
:10520000D8A404800350055C02E10250045C05E36D
:105210000250045E0350055A0080062EE6D701C0F6
:10522000F3FF0050E4CF07F0E4CF06F0E4CF05F041
:10523000E4CF04F0E4CF03F0E4CF02F0E4CF01F0D8
:10524000E4CF00F0E4CFD9FF1200D9CFE5FFE1CFE2
:10525000D9FF00C0E5FF01C0E5FF00017251D8A4ED
:1052600032D0C250020BE840006E00500BE100014A
:10527000605108E1010EC26E70EC34F0C282010E82
:105280000001606FC250020BE840006E00501BE14D
:105290000001605118E0C4CF61F00001626B0001B1
:1052A00061510001626F0001616BC3CF00F0016AC0
:1052B0000050000161270150000162230001606B72
:1052C000010E0001726F000161390F0B006E0001C9
:1052D0006239016EF00B011A002601C0F3FF005085
:1052E000E4CF01F0E4CF00F0E4CFD9FF1200D9CF32
:1052F000E5FFE1CFD9FF00C0E5FF01C0E5FF02C037
:10530000E5FF03C0E5FF020EDBCF00F0030EDBCFAD
:1053100001F0040EDBCF02F0050EDBCF03F00050EE
:105320000101D36F0150D46F02500101D56F0350BA
:10533000D66F0101D3510101D503F4CF01F0F3CFB2
:1053400000F000500101D76F0150D86F0101D35117
:105350000101D603F3CF00F00101D4510101D503BF
:10536000F3CF01F0015000260101D8510026005072
:10537000D86FD8C1F3FFD751E4CF03F0E4CF02F0E8
:10538000E4CF01F0E4CF00F0E4CFD9FF120017EE34
:10539000FFF027EEFFF0F86AA68EA69C600EF66E70
:1053A0006C0EF76E000EF86E0900F5CF05F00900DF
:1053B000F5CF06F034D00900F5CF00F00900F5CFA5
:1053C00001F00900F5CF02F009000900F5CFE9FF6F
:1053D0000900F5CFEAFF090009000900F5CF03F045
:1053E0000900F5CF04F009000900F6CF07F0F7CF68
:1053F00008F0F8CF09F000C0F6FF01C0F7FF02C0C7
:10540000F8FF03D00900F5CFEEFF0306FBE2040628
:10541000F9E207C0F6FF08C0F7FF09C0F8FF05066C
:10542000CAE20606C8E201EC1AF0FFD7D9CFE5FFC1
:10543000E1CFD9FF00C0E5FF01C0E5FFA1EC31F0ED
:10544000006EEDEC30F0016E005014E10001743F8D
:1054500002D00001752B010E0001755D03E15F0EA6
:105460000001745D27E35E0E0001746F010E000100
:10547000756F20D00050010A13E1FF0E0001742760
:1054800000017523000E0001755D03E1C80E0001E7
:10549000745D10E2C80E0001746F0001756B0AD0D4
:1054A0000150020A02E1E86A06D00150030A02E153
:1054B000060E01D0090EE4CF01F0E4CF00F0E4CFF6
:1054C000D9FF1200D9CFE5FFE1CFD9FF00C0E5FF3A
:1054D00001C0E5FFEDEC30F0006EA1EC31F0016EA3
:1054E000015014E10001763F02D00001772B010E3C
:1054F0000001775D03E15F0E0001765D27E35E0E3C
:105500000001766F010E0001776F20D00150010A73
:1055100013E1FF0E0001762700017723000E000142
:10552000775D03E1C80E0001765D10E2C80E000150
:10553000766F0001776B0AD00050020A02E1E86A38
:1055400006D00050030A02E1060E01D0080EE4CF97
:1055500001F0E4CF00F0E4CFD9FF1200D9CFE5FF8E
:10556000E1CFD9FF00C0E5FF01C0E5FFEDEC30F071
:10557000006EA1EC31F0016E015005E10001783FB1
:1055800002D00001792B000E0001795D03E1650E68
:105590000001785D06E3640E0001786F0001796B0D
:1055A00008D00150010A05E1FF0E00017827000133
:1055B0007923000E0001795D03E1010E0001785DA1
:1055C00006E2010E0001786F0001796B0AD00050ED
:1055D000020A02E1E86A06D00050030A02E1070E5F
:1055E00001D00B0EE4CF01F0E4CF00F0E4CFD9FFFF
:1055F0001200D9CFE5FFE1CFD9FF00C0E5FF01C020
:10560000E5FFEDEC30F0006EA1EC31F0016E0150E1
:1056100013E100017A3F02D000017B2B000E000154
:105620007B5D03E1650E00017A5D26E3640E0001F7
:105630007A6F00017B6B20D00150010A13E1FF0E4D
:1056400000017A2700017B23000E00017B5D03E14E
:10565000010E00017A5D10E2010E00017A6F000177
:105660007B6B0AD00050020A02E1E86A06D00050C3
:10567000030A02E1070E01D00A0EE4CF01F0E4CFE5
:1056800000F0E4CFD9FF1200D9CFE5FFE1CFD9FF79
:1056900000C0E5FF01C0E5FF02C0E5FF03C0E5FF74
:1056A00004C0E5FF020EDBCF00F0016A026A070EBC
:1056B000036E00C004F003500BE006E6E86CD890DF
:1056C0000432010FFDE304D0D8900436010FFDE34E
:1056D00004A011D0010E046E02500BE006E6E86C47
:1056E000D8900436010FFDE304D0D8900432010FA6
:1056F000FDE304500112022A0306D88003AED890BD
:10570000D8E30150E4CF04F0E4CF03F0E4CF02F09B
:10571000E4CF01F0E4CF00F0E4CFD9FF1200D9CFFD
:10572000E5FFE1CFD9FF00C0E5FF01C0E5FF02C002
:10573000E5FF03C0E5FF04C0E5FF05C0E5FF06C0C7
:10574000E5FF020EDBCF00F0030EDBCF01F0040E0D
:10575000DBCF02F08EEC35F0036EF3CF04F0F4CF24
:1057600005F0E9CF06F003C0E5FF04C0F4FF05C073
:10577000F6FF06C0F7FF00C0E9FF01C0F3FF0250CB
:105780007DEC35F0E4CF06F0E4CF05F0E4CF04F093
:10579000E4CF03F0E4CF02F0E4CF01F0E4CF00F077
:1057A000E4CFD9FF1200D9CFE5FFE1CFD9FF00C088
:1057B000E5FF57EC34F057EC34F057EC34F057EC8D
:1057C00034F057EC34F09650006EFD0E0014966ED7
:1057D0009650006EFE0E0014966E956A0E0EC16E07
:1057E000380EE56E4AEC31F0E652060EE56E4AECF4
:1057F00031F0E6520F0EE56E4AEC31F0E652030E40
:10580000E56E4AEC31F0E652010EE56E4AEC31F0FD
:10581000E652800EE56E4AEC31F0E652E4CF00F03D
:10582000E4CFD9FF1200D9CFE5FFE1CFD9FF00C007
:10583000E5FF01C0E5FF02C0E5FF03C0E5FF020E82
:10584000DBCF00F0030EDBCF01F0026A036A01BE7A
:105850000CD0D89001360150005C03E2D8900132A0
:1058600004D0032A03C002F0F2D70150005C02E327
:105870000150005ED890013202C003F002060350CE
:10588000F4E10050E4CF03F0E4CF02F0E4CF01F004
:10589000E4CF00F0E4CFD9FF1200D9CFE5FFE1CF8C
:1058A000D9FF00018F6B0001906B0001916B00012B
:1058B000965113E00001955110E00101DA6B0001EF
:1058C000966B0001956B000E0001906F990E000120
:1058D0008F6F800E0001916F0FD0000197510CE087
:1058E0000001956B0001966B0001976B00018F6BB7
:1058F0000001906B0001916B91C0F4FF90C0F3FF29
:1059000000018F51E4CFD9FF1200D9CFE5FFE1CFDD
:10591000D9FF00C0E5FFEDEC30F0006E005009E16A
:10592000010EE56E080EE56EC1EC1EF0E652E65281
:105930001DD00050010A09E1000EE56E080EE56E6B
:10594000C1EC1EF0E652E65211D00050020A09E105
:10595000020EE56E080EE56EC1EC1EF0E652E65250
:1059600005D00050030A02E1150E01D0250EE4CF48
:1059700000F0E4CFD9FF1200D9CFE5FFE1CFD9FF86
:1059800000C0E5FFEDEC30F0006E005009E1010EC3
:10599000E56E070EE56EC1EC1EF0E652E6521DD034
:1059A0000050010A09E1000EE56E070EE56EC1EC3C
:1059B0001EF0E652E65211D00050020A09E1020E32
:1059C000E56E070EE56EC1EC1EF0E652E65205D01C
:1059D0000050030A02E1150E01D0240EE4CF00F0BE
:1059E000E4CFD9FF1200D9CFE5FFE1CFD9FF00C046
:1059F000E5FFEDEC30F0006E005009E1010EE56EC0
:105A0000060EE56EC1EC1EF0E652E6521DD00050C7
:105A1000010A09E1000EE56E060EE56EC1EC1EF00E
:105A2000E652E65211D00050020A09E1020EE56E7C
:105A3000060EE56EC1EC1EF0E652E65205D00050AF
:105A4000030A02E1140E01D0230EE4CF00F0E4CFEC
:105A5000D9FF1200D9CFE5FFE1CFD9FF00C0E5FFA4
:105A6000EDEC30F0006E005009E1010EE56E050E20
:105A7000E56EC1EC1EF0E652E6521DD00050010A60
:105A800009E1000EE56E050EE56EC1EC1EF0E65272
:105A9000E65211D00050020A09E1020EE56E050E31
:105AA000E56EC1EC1EF0E652E65205D00050030A46
:105AB00002E1140E01D0220EE4CF00F0E4CFD9FFB2
:105AC0001200D9CFE5FFE1CFD9FF00C0E5FFEDEC33
:105AD00030F0006E005009E1010EE56E040EE56E37
